:020000040000FA
:04000000EBEF25F00D
:104A76008398120083881200839C839E838A120087
:104A8600838C839E839A1200839C838E839A120062
:104A9700AD4E010400000000008984849689968445
:104AA7009889981200F80E5DEC25F0010E17EC2698
:104AB700F01200026E100EE82EFED700D00250A9A9
:104AC700EC25F01200889C889E889A8898839C839E
:104AD7009E839A3BEC25F01200016E9EA276EF258D
:104AE700F078EF25F071EF25F001C09AFF120084EE
:104AF700988496040E016E3E0EE82EFED7012EFC1A
:104B0700D78488120084988496040E016E3E0EE8BE
:104B17002EFED7012EFCD7848612001F0E0F0157D9
:104B27006F030E5F6F140E5C6F608E88861187129D
:104B370000066E859406508009066E0650A9EC257E
:104B4700F00550A9EC25F085841200016E92500EF5
:104B570001CD9101C092FFCDA1B4EF25F0B6EF25AD
:104B6700F0AFEF25F01200046E859404507F0B041C
:104B77006E0450A9EC25F0000EC6EC25F0036E85F7
:104B87008403501200016E92500E01CD9101C09224
:104B9700FFCDA1D1EF25F0D3EF25F0CCEF25F09293
:104BA700CF02F00250120084848994110E016E3AEC
:104BB7000EE82EFED7012EFCD700D08984110E01F6
:104BC7006E3A0EE82EFED7012EFCD700D0120097C2
:104BD7000EF66E4A0EF76E000EF86E00EEE7F01056
:104BE700EE09F00900F5CFEEFFE550E150FAE100DC
:104BF7000EF86E000150EF3BF0859256EC25F06CF5
:104C0700C06AF06DC06BF04FEC2FF06EC06AF06FAA
:104C1700C06BF02DEC2CF070C06AF071C06BF0AF78
:104C2700EC2BF0858212000A6E0A5059EC2AF00B21
:104C37006E100EE82EFED700D00B50F00BA9EC2516
:104C4700F0100EE82EFED700D00BC009F00F0E09AA
:104C5700160938F00BA9EC25F012008A960F0121EE
:104C6700978A8821998A9A8A9485848A9085808AE6
:104C77009285820D0E0E01FA6F0E0EFC6F130EB7A2
:104C87006F140EB86F400E956E200E966E000E983C
:104C97006E12000B6E0BC001F0026A000E046E0A62
:104CA7000E036E92EC29F00150096E0BC001F00261
:104CB7006A000E046E0A0E036EDAEC28F001500A41
:104CC7006E0950100DF3500A240B6E0B5012008A18
:104CD7008C8A8E0F01219F88908390000E9E6E0014
:104CE7000E9D6E090E0E01FD6F9E989E9C9D9C9DCC
:104CF700889D96C58BC5999E849F86000E9C6E0CD9
:104D07000E9B6E000E9C6E9E8A9D8ECD9BC58BF270
:104D17008C12008592F80E5DEC25F0E00E17EC265C
:104D2700F0FA0E5DEC25F00CC0F6FF0DC0F7FF089A
:104D370000F55017EC26F00C4A0D2A0CC0F6FF0DB3
:104D4700C0F7FF0800F5500009D8A4ADEF26F0AF73
:104D5700EF26F097EF26F085821200608060B0B7EB
:104D6700EF26F0B9EF26F0B2EF26F063CF03F00697
:104D77000E046ED8900332042EBDEF26F003506464
:104D8700CF05F0066AD89005360636D89005360660
:104D9700360510076E0650086E07C001F008C002FE
:104DA700F012008590000EC6EC25F00A6E0AC005C9
:104DB700F0C00E0516D8B4E3EF26F0E5EF26F0D6DF
:104DC700EF26F0000EC6EC25F0000EC6EC25F00528
:104DD7006E066A060ED89005360636E82EEEEF26E2
:104DE700F0000EC6EC25F0076ED8900732D8900772
:104DF7003207500510086E0650096E858008C003FB
:104E0700F009C004F01200000168516911D8B40F0D
:104E1700EF27F011EF27F035EF27F0010E5F6E193E
:104E2700EF27F0D890683769375F2A69AF1EEF27F9
:104E3700F020EF27F015EF27F06851665D6951679D
:104E470059D8A029EF27F02BEF27F02FEF27F0688D
:104E570051665F6951675BD890693368335F2E206D
:104E6700EF27F066C066F067C067F0120085900014
:104E77000EC6EC25F0056E0550086E096AC00E08CF
:104E870014056E000E0914066E05500610D8B44FAF
:104E9700EF27F051EF27F03BEF27F008C005F009A7
:104EA700C006F0060ED89005360636E82E56EF27D0
:104EB700F0000EC6EC25F0076ED8900732D89007A1
:104EC7003207500510086E0650096E858008C0032A
:104ED700F009C004F01200899A848A110E0C6E3A08
:104EE7000EE82EFED70C2EFCD700D0849A100EE8C1
:104EF7002EFED700D0848A8592F80E5DEC25F03A15
:104F07000E17EC26F0090E17EC26F0060E17EC2606
:104F1700F01E0E17EC26F0390E17EC26F01B0E17B5
:104F2700EC26F06E0E17EC26F0560E17EC26F07AEC
:104F37000E17EC26F0380E17EC26F00F0E17EC269E
:104F4700F085821200000E066E000E056E035004F7
:104F570010D8B4B1EF27F0B3EF27F0DBEF27F0015C
:104F67000E076EBBEF27F0D89003360436072A04E6
:104F7700AEC0EF27F0C2EF27F0B7EF27F0D89005C4
:104F87003606360350015C04500258D8A0CEEF27EE
:104F9700F0D0EF27F0D5EF27F00350015E04500261
:104FA7005A0580D89004320332072EC2EF27F00546
:104FB700C001F006C002F0120001C0D9FF02C0DA3A
:104FC700FFE80EDE5C030EDE58D8A0EDEF27F0EF0A
:104FD700EF27F006EF28F001C0D9FF02C0DAFFB8CB
:104FE7000EDE5C0B0EDE58D8A0FCEF27F0FEEF2795
:104FF700F002EF28F043EC25F008EF28F047EC2506
:10500700F008EF28F03FEC25F003C0D9FF04C0DA21
:10501700FFE90EDE5C030EDE58D8B015EF28F01757
:10502700EF28F019EF28F03DEC25F01200000E06EE
:105037006E37EF28F006500224046E000E03200599
:105047006E04C0F6FF05C0F7FFF86A070EF76403A2
:10505700D00800F55005D0F6CFE9FFF7CFEAFFEF0C
:105067005070EC25F0062A06500224046E000E0349
:1050770020056E04C0F6FF05C0F7FFF86A070EF7B4
:105087006403D00800F55005D0F6CFE9FFF7CFEA63
:10509700FFEF500009D8A453EF28F055EF28F01E72
:1050A700EF28F01200000E066E73EF28F00650028C
:1050B70024046E000E0320056E04C0F6FF05C0F73A
:1050C700FFF86A070EF76403D00800F55005D0F61D
:1050D700CFE9FFF7CFEAFFEF5070EC25F0062A067D
:1050E700500224046E000E0320056E04C0F6FF056F
:1050F700C0F7FFF86A070EF76403D00800F55005FC
:10510700D0F6CFE9FFF7CFEAFFEF500009D8A48F19
:10511700EF28F091EF28F05AEF28F00D0E70EC25EC
:10512700F00A0E70EC25F01200000E366E400E37B6
:105137006E1C0E386E460E396E000E1D6EF80E1E72
:105147006E7F0E1F6E460E206E3AEC27F003C00BE3
:10515700F004C00CF00D6A0E6A000EE5EC32F00B9D
:10516700C019F00CC01AF00DC01BF00EC01CF00ED9
:10517700EC35F019C032F01AC033F01BC034F01C04
:10518700C035F0DBEC36F032C05BF033C05CF03496
:10519700C05DF035C05EF0ABEC2CF05BC068F05C36
:1051A700C069F068C066F069C067F01200000E06BB
:1051B7006E02BEE3EF28F0E1EF28F0E9EF28F001F7
:1051C7006C021ED8B0022A010E066E04BEF0EF284C
:1051D700F0EEEF28F0F4EF28F0036C041ED8B004CB
:1051E7002A03500410D8B4FBEF28F0FDEF28F02174
:1051F700EF29F0010E056E05EF29F0D8900336046C
:1052070036052A04AE0AEF29F00CEF29F001EF2941
:10521700F00350015C04500258D8A015EF29F0178D
:10522700EF29F01BEF29F00350015E0450025AD812
:105237009004320332052E0CEF29F00650D8B4271C
:10524700EF29F029EF29F02DEF29F0016C021ED884
:10525700B0022A01C001F002C002F01200B1EC2630
:10526700F001C00BF002C00CF00D6A0E6A000EE5EB
:10527700EC32F00BC032F00CC033F00DC034F00E3E
:10528700C035F00D0E366E000E376E4D0E386E3B84
:105297000E396EDBEC36F032C066F033C067F0349F
:1052A700C068F035C069F0000E366E000E376E200C
:1052B7000E386E410E396E66C032F067C033F06843
:1052C700C034F069C035F0DBEC36F032C06AF03339
:1052D700C06BF034C06CF035C06DF0C30E366EF5A0
:1052E7000E376E300E386E400E396E6AC032F06B74
:1052F700C033F06CC034F06DC035F0DBEC36F03203
:10530700C05BF033C05CF034C05DF035C05EF0AB1D
:10531700EC2CF05B5000016E6F6E511200000E0610
:105327006E04BE9BEF29F099EF29F0A1EF29F00356
:105337006C041ED8B0042A010E066E02BEA8EF291F
:10534700F0A6EF29F0AEEF29F0016C021ED8B002EB
:105357002A010E061A000E086E000E076E0350048F
:1053670010D8B4B9EF29F0BBEF29F0E3EF29F0012A
:105377000E056EC3EF29F0D89003360436052A04CC
:10538700AEC8EF29F0CAEF29F0BFEF29F0D8900790
:105397003608360350015C04500258D8A0D6EF29CE
:1053A700F0D8EF29F0DDEF29F00350015E04500239
:1053B7005A0780D89004320332052ECAEF29F00627
:1053C70050D8B4E9EF29F0EBEF29F0EFEF29F00718
:1053D7006C081ED8B0082A07C001F008C002F012F6
:1053E7000016EC32F066C0DEF067C0DFF0DEC00109
:1053F700F0DFC002F0030E046EE80E036EA6EC2782
:10540700F00150300F0001D86F000E046E640E03D8
:105417006EDEC001F0DFC002F0A6EC27F001C06627
:10542700F002C067F0000E0001696F0A0E686F078F
:10543700EC27F000016651300FD96F2E0EDA6F009E
:105447000E046E0A0E036EDEC001F0DFC002F0A686
:10545700EC27F001C066F002C067F0000E0001699A
:105467006F0A0E686F07EC27F000016651300FDBFB
:105477006FDEC066F0DFC067F0000E696F0A0E6866
:105487006F07EC27F000016651300FDC6F000EDD6F
:105497006F270E026E7F0E036E1AEC28F0D80E02ED
:1054A7006E000E036E56EC28F01200066E000E0515
:1054B7006E000E086E000E076E08BE6EEF2AF0082B
:1054C7005007E1040E075CD8B06CEF2AF06EEF2AA4
:1054D700F08FEF2AF00750FE0DF3CF01F0070E0112
:1054E7002607C002F0010E036E022A7DEF2AF0D8CC
:1054F700900336022E7BEF2AF003500614046E0148
:105507002A88EF2AF0D8900436012E86EF2AF00475
:10551700500526AEEF2AF00750020DF3CF01F0F940
:105527000E012607C002F0010E036E022A9EEF2A23
:10553700F0D8900336022E9CEF2AF003500614048D
:105547006E012AA9EF2AF0D8900432012EA7EF2A7C
:10555700F004500526074A082A08BEBCEF2AF008BF
:105567005009E1080E075CD8A0BCEF2AF0BEEF2A6D
:10557700F060EF2AF005501200B40E096E7E0E0A95
:105587006E100E035CD8A0CBEF2AF0CDEF2AF0DC2B
:10559700EF2AF003380F0B0924046E000E0A2005CA
:1055A7006E04C0F6FF05C0F7FF0800F55070EC2544
:1055B700F00304D8A0E2EF2AF0E4EF2AF0FFEF2A85
:1055C700F002C004F003C005F005C004F0056A0F3F
:1055D7000E0416000E051609C006F00AC007F004EF
:1055E7005006260550072206C0F6FF07C0F7FF083A
:1055F70000F55070EC25F002C004F003C005F0047C
:105607000E066ED89005320432062E05EF2BF00FEA
:105617000E0416000E051609C007F00AC008F004AC
:105627005007260550082207C0F6FF08C0F7FF08F5
:1056370000F55070EC25F00F0E0214046E000E03F7
:1056470014056E09C006F00AC007F00450062605C7
:1056570050072206C0F6FF07C0F7FF0800F5507095
:10566700EC25F01200000E056E000E9CEC25F0D91B
:105677000E056E060E9CEC25F0000E056E070E9CBF
:10568700EC25F0000E056E080E9CEC25F08C0E053F
:105697006E090E9CEC25F0190E056E0A0E9CEC2582
:1056A700F02B0E056E0B0E9CEC25F0230E056E0CF1
:1056B7000E9CEC25F0000E056E0D0E9CEC25F0807F
:1056C7000E056E0E0E9CEC25F0000E056E0F0E9C5F
:1056D700EC25F0000E056E110E9CEC25F0FF0E0573
:1056E7006E120E9CEC25F0230E056E1D0E9CEC250C
:1056F700F0C60E056E1E0E9CEC25F0FF0E056E1F04
:105707000E9CEC25F0000E056E200E9CEC25F00893
:105717000E056E210E9CEC25F0800E056E230E9C67
:10572700EC25F0000E056E240E9CEC25F0C30E054B
:105737006E310E9CEC25F0270E056E330E9CEC2582
:10574700F00A0E056E370E9CEC25F0120E056E3929
:105757000E9CEC25F01200F80E5DEC25F0C00E173C
:10576700EC26F0FA0E5DEC25F0420E17EC26F06100
:105777000E17EC26F0740E17EC26F03A0E17EC26EF
:10578700F0200E17EC26F0E80E00016A5D030E6BA1
:1057970059D8A0D1EF2BF0D3EF2BF0EFEF2BF0037D
:1057A7000E046EE80E036E6AC001F06BC002F0A62D
:1057B700EC27F001C066F002C067F0000E00016937
:1057C7006F0A0E686F07EC27F000016651300F175C
:1057D700EC26F0F2EF2BF0200E17EC26F0000E046B
:1057E7006E640E036E6AC001F06BC002F0A6EC2770
:1057F700F001C066F002C067F0000E0001696F0A91
:105807000E686F07EC27F000016651300F17EC2682
:10581700F02E0E17EC26F0000E046E0A0E036E6AC9
:10582700C001F06BC002F0A6EC27F001C066F002E1
:10583700C067F0000E0001696F0A0E686F07EC275A
:10584700F000016651300F17EC26F0250E17EC26F5
:10585700F01200F80E5DEC25F0A00E17EC26F0FA1A
:105867000E5DEC25F0480E17EC26F0750E17EC26AA
:10587700F06D0E17EC26F03A0E17EC26F0200E17F7
:10588700EC26F0E80E00016A5D030E6B59D8A04FB5
:10589700EF2CF051EF2CF06DEF2CF0030E046EE8B7
:1058A7000E036E6AC001F06BC002F0A6EC27F00190
:1058B700C066F002C067F0000E0001696F0A0E684B
:1058C7006F07EC27F000016651300F17EC26F070D8
:1058D700EF2CF0200E17EC26F0000E046E640E037A
:1058E7006E6AC001F06BC002F0A6EC27F001C0663B
:1058F700F002C067F0000E0001696F0A0E686F07BB
:10590700EC27F000016651300F17EC26F02E0E172A
:10591700EC26F0000E046E0A0E036E6AC001F06BEF
:10592700C002F0A6EC27F001C066F002C067F000E5
:105937000E0001696F0A0E686F07EC27F000016619
:1059470051300F17EC26F0250E17EC26F012005DEC
:10595700345E340001656F6551D8A4B5EF2CF0B7FC
:10596700EF2CF0C1EF2CF0000E5B6E000E5C6E00AA
:105977000E5D6E000E5E6E2EEF2DF05BC060F05C6C
:10598700C061F05DC062F05EC063F0200ED1EF2C05
:10599700F0D8906333623361336033E82ECCEF2C59
:1059A700F06051646F5D8EFF0E5B16FF0E5C16FF95
:1059B7000E5D16000E5E16960E655F65BFE8EF2C4E
:1059C700F0E6EF2CF0FEEF2CF06551800A970FD828
:1059D700B0F0EF2CF0F2EF2CF0F4EF2CF0B7EF2C47
:1059E700F0D8905E325D325C325B32653FF4EF2C6B
:1059F700F016EF2DF01F0E656504EF2DF006EF2D65
:105A0700F00EEF2DF0B7EF2CF0D8905B365C365DDB
:105A1700365E3665076551D8A414EF2DF016EF2DC5
:105A2700F008EF2DF06451D8B41CEF2DF01EEF2DC8
:105A3700F026EF2DF05E1E5D1E5C1E5B6C000E5C9B
:105A4700225D225E225BC05BF05CC05CF05DC05DE6
:105A5700F05EC05EF012008592B40E136E7E0E14D7
:105A67006EFA0E5DEC25F0100E0D5CD8A03EEF2D02
:105A7700F040EF2DF04FEF2DF00D380F0B13240EE4
:105A87006E000E14200F6E0EC0F6FF0FC0F7FF0852
:105A970000F55017EC26F00D04D8A055EF2DF05760
:105AA700EF2DF072EF2DF00CC00EF00DC00FF00FC0
:105AB700C00EF00F6A0F0E0E16000E0F1613C01051
:105AC700F014C011F00E5010260F50112210C0F61E
:105AD700FF11C0F7FF0800F55017EC26F00D50092D
:105AE700E1100E0C5CD8A07BEF2DF07DEF2DF09D23
:105AF700EF2DF00CC00EF00DC00FF0040E106ED895
:105B0700900F320E32102E83EF2DF00F0E0E16006F
:105B17000E0F1613C011F014C012F00E5011260FFD
:105B270050122211C0F6FF12C0F7FF0800F55017F8
:105B3700EC26F00F0E0C140E6E000E0D140F6E13E4
:105B4700C010F014C011F00E5010260F5011221083
:105B5700C0F6FF11C0F7FF0800F55017EC26F085D7
:105B670082120086EC25F00E0EB7EC25F0056E0DBF
:105B77000E9CEC25F00DC005F0220E9CEC25F000E4
:105B87000E106E0D50D8A4CBEF2DF0CDEF2DF0CF2A
:105B9700EF2DF0E4EF2DF010500B24D96E000E0C12
:105BA70020DA6EDF50056E000E9CEC25F0102A0DF2
:105BB70050105CD8A0E2EF2DF0E4EF2DF0CFEF2DE1
:105BC700F0830E056E010E9CEC25F0210E0E6E760D
:105BD7000EE82EFED70E2EFCD700D0120EB7EC25FE
:105BE700F00F6EFBEF2DF0120EB7EC25F00F6E0FD6
:105BF700A600EF2EF002EF2EF0F7EF2DF0FF0E05C7
:105C07006E120E9CEC25F05A0E026E7E0E036E1A73
:105C1700EC28F0000E106E0D50D8A415EF2EF017DB
:105C2700EF2EF019EF2EF036EF2EF010500B24D98F
:105C37006E000E0C20DA6EDF500E6E0E50026E03F1
:105C47006AC0EC2AF0940E026E7F0E036E1AEC28DF
:105C5700F0102A0D50105CD8A034EF2EF036EF2E3E
:105C6700F019EF2EF0940E026E7F0E036E56EC289D
:105C7700F012000D0E366E000E376E4D0E386E3B6D
:105C87000E396EB1EC26F001C00BF002C00CF00D1E
:105C97006A0E6A000EE5EC32F00BC032F00CC0332E
:105CA700F00DC034F00EC035F0DBEC36F032C068D2
:105CB700F033C069F034C06AF035C06BF05C0E1D7C
:105CC7006E8F0E1E6E4A0E1F6E420E206EF60E4F20
:105CD7006E280E506E7D0E516EC30E526E000E363C
:105CE7006E000E376EC80E386E420E396E68C032BF
:105CF700F069C033F06AC034F06BC035F0DBEC36C6
:105D0700F032C04BF033C04CF034C04DF035C04ECC
:105D1700F0F0EC38F04BC019F04CC01AF04DC01B36
:105D2700F04EC01CF00EEC35F019C06CF01AC06DC7
:105D3700F01BC06EF01CC06FF0000E366E400E37C1
:105D47006E1C0E386E460E396E6CC032F06DC03365
:105D5700F06EC034F06FC035F0DBEC36F032C05B6C
:105D6700F033C05CF034C05DF035C05EF0ABEC2CB6
:105D7700F05BC070F05CC071F070C066F071C06716
:105D8700F01200000E0001D36F000E366E400E3782
:105D97006E1C0E386E460E396E000E1D6EF80E1E06
:105DA7006E7F0E1F6E460E206E3AEC27F003C00B77
:105DB700F004C00CF00D6A0E6A000EE5EC32F00B31
:105DC700C019F00CC01AF00DC01BF00EC01CF00E6D
:105DD700EC35F019C032F01AC033F01BC034F01C98
:105DE700C035F0DBEC36F032C05BF033C05CF0342A
:105DF700C05DF035C05EF0ABEC2CF05BC0D0F05C62
:105E0700C0D1F00001D351020D6C0EF324D96E00FE
:105E17000EF420DA6ED0C0DEFFD1C0DDFF130ED343
:105E270019D8A419EF2FF01BEF2FF041EF2FF06CCB
:105E3700C0D0F06DC0D1F0010ED26FD251020D6CFF
:105E47000EF324D96E000EF420DA6EDECF68F0DD93
:105E5700CF69F0D0516827D1516923D89069316A49
:105E67006F6831D06F6AC0D1F0D22B130ED2653F65
:105E7700EF2FF041EF2FF021EF2FF0D32B130ED39D
:105E87006548EF2FF04AEF2FF0C8EF2EF0D0C0662D
:105E9700F0D1C067F01200F80E5DEC25F0800E1708
:105EA700EC26F0FA0E5DEC25F0540E17EC26F065A3
:105EB7000E17EC26F06D0E17EC26F03A0E17EC26AF
:105EC700F0E80E00016A5D030E6B59D8A06EEF2F44
:105ED700F070EF2FF08CEF2FF0030E046EE80E0337
:105EE7006E6AC001F06BC002F0A6EC27F001C06635
:105EF700F002C067F0000E0001696F0A0E686F07B5
:105F0700EC27F000016651300F17EC26F08FEF2FCA
:105F1700F0200E17EC26F0000E046E640E036E6A76
:105F2700C001F06BC002F0A6EC27F001C066F002DA
:105F3700C067F0000E0001696F0A0E686F07EC2753
:105F4700F000016651300F17EC26F02E0E17EC26E5
:105F5700F0000E046E0A0E036E6AC001F06BC002F9
:105F6700F0A6EC27F001C066F002C067F0000E0053
:105F770001696F0A0E686F07EC27F0000166513060
:105F87000F17EC26F06AC066F06BC067F0000E00D2
:105F970001696F0A0E686F07EC27F0000166513040
:105FA7000F17EC26F0DF0E17EC26F01200010EB7E4
:105FB700EC25F0116EC50E026E7E0E036E1AEC28EC
:105FC700F011C002F0036AC0EC2AF0940E026E7F53
:105FD7000E036E56EC28F01150800B106E1050D83F
:105FE700B4F8EF2FF0FAEF2FF01BEF30F01150401D
:105FF7000B106E1050D8A403EF30F005EF30F013FC
:10600700EF30F05E0E026E7F0E036E56EC28F06ADC
:106017000E0C6E7F0E0D6E8DEC26F021EF30F01D0D
:106027000E026E7D0E036E56EC28F021EF30F075F0
:106037000E026E7F0E036E56EC28F01150070B1000
:106047006E66EF30F0800E026E7F0E036E56EC2800
:10605700F093EF30F0450E026E7F0E036E56EC287C
:10606700F093EF30F0F20E026E7D0E036E56EC28C1
:10607700F093EF30F0EC0E026E7F0E036E56EC28B5
:10608700F093EF30F0DB0E026E7D0E036E56EC28B8
:10609700F093EF30F0C30E026E7D0E036E56EC28C0
:1060A700F093EF30F01F0E026E7E0E036E56EC2853
:1060B700F093EF30F05E0E026E7D0E036E56EC2805
:1060C700F093EF30F010500E6E0F6A0F50000AD8A1
:1060D700B470EF30F093EF30F00E50000AD8B426CA
:1060E700EF30F0010AD8B42EEF30F0030AD8B436F7
:1060F700EF30F0010AD8B43EEF30F0070AD8B446C3
:10610700EF30F0010AD8B44EEF30F0030AD8B45696
:10611700EF30F0010AD8B45EEF30F093EF30F012B1
:10612700003AEC27F003C06EF004C06FF0000E1DBC
:106137006EF80E1E6E7F0E1F6E460E206E6EC00B23
:10614700F06FC00CF00D6A0E6A000EE5EC32F00B32
:10615700C019F00CC01AF00DC01BF00EC01CF00ED9
:10616700EC35F019C032F01AC033F01BC034F01C04
:10617700C035F0000E366E000E376EC80E386E4210
:106187000E396EDBEC36F032C06AF033C06BF03498
:10619700C06CF035C06DF0000E366E000E376E2005
:1061A7000E386E410E396E6AC032F06BC033F06C38
:1061B700C034F06DC035F0DBEC36F032C05BF03345
:1061C700C05CF034C05DF035C05EF0ABEC2CF05B2A
:1061D700C076F05CC077F076C001F077C002F003BC
:1061E7000E046EE80E036EA6EC27F00150300F0088
:1061F70001706F000E046E640E036E76C001F077B7
:10620700C002F0A6EC27F001C066F002C067F000FC
:106217000E0001696F0A0E686F07EC27F000016630
:1062270051300F716F000E046E0A0E036E76C001B7
:10623700F077C002F0A6EC27F001C066F002C06755
:10624700F0000E0001696F0A0E686F07EC27F00077
:10625700016651300F726F2E0E736F76C066F0773E
:10626700C067F0000E696F0A0E686F07EC27F00031
:10627700016651300F746F000E756F940E026E7FBA
:106287000E036E56EC28F0520E026E7F0E036E1A46
:10629700EC28F0700E026E000E036E56EC28F0121A
:1062A700007BEC25F00F0EB7EC25F0056E0D0E9C6C
:1062B700EC25F0860E056E010E9CEC25F0210E0DE7
:1062C7006E760EE82EFED70D2EFCD700D0AB0E0251
:1062D7006E7D0E036E56EC28F0790E026E7D0E036E
:1062E7006E56EC28F0120EB7EC25F0106E10B87F42
:1062F700EF31F081EF31F088EF31F010AE86EF31FA
:10630700F088EF31F076EF31F0120EB7EC25F00D93
:106317006E0DB891EF31F093EF31F0A2EF31F0202D
:10632700EE04F00B50D9260C50DA22420EDF6EFF36
:106337000E056E120E9CEC25F015EF32F0090E02D9
:106347006E7E0E036E56EC28F0120EB7EC25F01099
:106357006EB2EF31F0120EB7EC25F0106E10ACB73D
:10636700EF31F0B9EF31F0AEEF31F010AABEEF31F7
:10637700F0C0EF31F0CEEF31F0940E026E7F0E03D6
:106387006E56EC28F06C0E026E7E0E036E56EC28ED
:10639700F010EF32F0E70E026E7E0E036E1AEC2855
:1063A700F0130EB7EC25F00E6E100EB7EC25F005C6
:1063B7006E0D0E9CEC25F0000E0F6E01EF32F00F04
:1063C700500B24D96E000E0C20DA6E000EB7EC25A8
:1063D700F0DF6E0F500B24D96E000E0C20DA6EDF43
:1063E700500D6E0D50026E036AC0EC2AF0940E0237
:1063F7006E7F0E036E1AEC28F00F2A0E500F5CD832
:10640700A008EF32F00AEF32F0E3EF31F0940E021A
:106417006E7F0E036E56EC28F0FF0E056E120E9C73
:10642700EC25F01200000E0001D56F000E4F6E0034
:106437000E506E200E516EC20E526E000E366E005A
:106447000E376E250E386E430E396E000E1D6EF830
:106457000E1E6E7F0E1F6E460E206ED5EC26F003C5
:10646700C00BF004C00CF00D6A0E6A000EE5EC32AA
:10647700F00BC019F00CC01AF00DC01BF00EC01CB9
:10648700F00EEC35F019C032F01AC033F01BC034EF
:10649700F01CC035F0DBEC36F032C04BF033C04CAB
:1064A700F034C04DF035C04EF0F0EC38F04BC0D0B2
:1064B700F04CC0D1F04DC0D2F04EC0D3F0000E3634
:1064C7006E000E376EC80E386E420E396ED0C0326F
:1064D700F0D1C033F0D2C034F0D3C035F0DBEC36A6
:1064E700F032C05BF033C05CF034C05DF035C05EA5
:1064F700F0ABEC2CF05BC0D6F05CC0D7F0890E0097
:1065070001D65D130ED759D8B08CEF32F08EEF322B
:10651700F099EF32F0F40ED65D010ED759D8B09747
:10652700EF32F099EF32F09CEF32F0D507A8EF3257
:10653700F0D551020D6C0EF324D96E000EF420DA5B
:106547006ED6C0DEFFD7C0DDFF130ED519D8A4AFB6
:10655700EF32F0B1EF32F0D7EF32F06CC0D6F06D1A
:10656700C0D7F0010ED46FD451020D6C0EF324D9AD
:106577006E000EF420DA6EDECF68F0DDCF69F0D65C
:10658700516827D7516923D89069316A6F6831D626
:106597006F6AC0D7F0D42B130ED465D5EF32F0D77E
:1065A700EF32F0B7EF32F0D52B130ED565DEEF32B1
:1065B700F0E0EF32F019EF32F0D6C066F0D7C067DF
:1065C700F01200136E1350D8B4ECEF32F0EEEF3246
:1065D700F010EF33F00EBEF5EF32F0F3EF32F010BC
:1065E700EF33F00BC00FF00CC010F00DC011F00E20
:1065F700C012F00F1E101E111E121E0F2A000E10C1
:1066070022112212220FC015F010C016F011C01768
:10661700F012C018F018EF33F00BC015F00CC016CD
:10662700F00DC017F00EC018F00B500C100D100E27
:1066370010D8A421EF33F023EF33F02DEF33F00020
:106647000E0B6E000E0C6E000E0D6E000E0E6EBE63
:10665700EF33F0960E146E37EF33F0142AD89018F4
:1066670032173216321532000E15140F6E000E1641
:1066770014106E000E1714116EFE0E1814126E0F02
:1066870050101011101210D8A44CEF33F04EEF3306
:10669700F031EF33F05CEF33F0142A010E152600CA
:1066A7000E162217221822D89018321732163215D2
:1066B70032000E15140F6E000E1614106E000E1712
:1066C70014116EFF0E1814126E0F501010111012C5
:1066D70010D8A471EF33F073EF33F050EF33F07B42
:1066E700EF33F01406D890153616361736183617C6
:1066F700BE80EF33F082EF33F08AEF33F0020E14EF
:106707006088EF33F08AEF33F075EF33F014B08F12
:10671700EF33F091EF33F092EF33F0179ED89014E8
:106727003214C00FF0106A116A126A0FC012F0110A
:106737006A106A0F6A0F501512105016121150176F
:1067470012125018121350D8B4ACEF33F0AEEF3327
:10675700F0B6EF33F00EBEB5EF33F0B3EF33F0B66C
:10676700EF33F0188E15C00BF016C00CF017C00DE4
:10677700F018C00EF01200B1EC26F001C072F00262
:10678700C073F072C00BF073C00CF00D6A0E6A0094
:106797000EE5EC32F00BC032F00CC033F00DC03414
:1067A700F00EC035F00D0E366E000E376E4D0E38FA
:1067B7006E3B0E396EDBEC36F032C06AF033C06BDD
:1067C700F034C06CF035C06DF0000E366E000E3739
:1067D7006E7A0E386E440E396E6AC032F06BC03373
:1067E700F06CC034F06DC035F0DBEC36F032C05BD6
:1067F700F033C05CF034C05DF035C05EF0ABEC2C1C
:10680700F05BC066F05CC067F0270E0001696F108F
:106817000E686F07EC27F066C074F067C075F0C3A9
:106827000E366EF50E376E300E386E400E396E74BA
:10683700C00BF075C00CF00D6A0E6A000EE5EC3265
:10684700F00BC032F00CC033F00DC034F00EC03581
:10685700F0DBEC36F032C05BF033C05CF034C05D87
:10686700F035C05EF0ABEC2CF05BC076F05CC07727
:10687700F0000E4F6E000E506E2F0E516EC40E526A
:106887006E000E1D6E000E1E6E200E1F6E410E2036
:106897006E76C00BF077C00CF00D6A0E6A000EE53D
:1068A700EC32F00BC019F00CC01AF00DC01BF00E43
:1068B700C01CF00EEC35F019C04BF01AC04CF01BA1
:1068C700C04DF01CC04EF0F0EC38F04BC06EF04CF1
:1068D700C06FF04DC070F04EC071F0000E366E40C4
:1068E7000E376E1C0E386E460E396E000E1D6E008A
:1068F7000E1E6E0C0E1F6E430E206E6EC019F06FCB
:10690700C01AF070C01BF071C01CF00EEC35F01906
:10691700C032F01AC033F01BC034F01CC035F0DBB6
:10692700EC36F032C05BF033C05CF034C05DF0355C
:10693700C05EF0ABEC2CF05BC07EF05CC07FF07EFD
:10694700C001F07FC002F0030E046EE80E036EA6CE
:10695700EC27F00150300F0001786F000E046E64D1
:106967000E036E7EC001F07FC002F0A6EC27F00197
:10697700C066F002C067F0000E0001696F0A0E687A
:106987006F07EC27F000016651300F796F2E0E7AF2
:106997006F000E046E0A0E036E7EC001F07FC00208
:1069A700F0A6EC27F001C066F002C067F0000E0009
:1069B70001696F0A0E686F07EC27F0000166513016
:1069C7000F7B6F7EC066F07FC067F0000E696F0AAD
:1069D7000E686F07EC27F000016651300F7C6F00DF
:1069E7000E7D6F940E026E7F0E036E56EC28F043F9
:1069F7000E026E7D0E036E1AEC28F0780E026E0002
:106A07000E036E1AEC28F0FC0E026E7F0E036E5614
:106A1700EC28F012001C50800B296E1C501C2430EF
:106A27006E1BAE19EF35F01BEF35F01CEF35F0306C
:106A3700803050D8B422EF35F024EF35F039EF35F8
:106A4700F03028D8A42AEF35F02CEF35F034EF35A5
:106A5700F0000E196E000E1A6E000E1B6E000E1C53
:106A67006E1B8E000E1C6E41EF35F0000E196E0086
:106A77000E1A6E000E1B6E000E1C6E2050800B2926
:106A87001A20502024316E1FAE4CEF35F04EEF35F3
:106A9700F04FEF35F031803150D8B455EF35F0571E
:106AA700EF35F06CEF35F03128D8A45DEF35F05FA6
:106AB700EF35F067EF35F0000E1D6E000E1E6E000D
:106AC7000E1F6E000E206E1F8E000E206E74EF35A7
:106AD700F0000E1D6E000E1E6E000E1F6E000E20C3
:106AE7006E1D501E101F102010D8A47DEF35F07FAB
:106AF700EF35F097EF35F0000E196E000E1A6E00A5
:106B07000E1B6E000E1C6E800E1B127F0E1C1229B0
:106B1700501C1219C019F01AC01AF01BC01BF01C28
:106B2700C01CF0DAEF36F03050D8A49DEF35F09F57
:106B3700EF35F0A9EF35F0000E196E000E1A6E0052
:106B47000E1B6E000E1C6EDAEF36F0315030C0218E
:106B5700F0226A215E000E225A7F0E21242A6E003F
:106B67000E22202B6E19C025F01AC026F01BC02755
:106B7700F01CC028F0000E196E000E1A6E000E1BD6
:106B87006E000E1C6E000E2C6E000E2D6E000E2E6B
:106B97006E000E2F6E000E316E0AEF36F03150D8B0
:106BA700B4D8EF35F0DAEF35F0F1EF35F0D89025BE
:106BB70036263627362836D89019361A361B361C0D
:106BC700362FAEE9EF35F0EBEF35F0ECEF35F01996
:106BD70080D8902C362D362E362F361D50255C1E2C
:106BE7005026581F50275820502858D8A0FEEF3558
:106BF700F000EF36F009EF36F02F8C1D50255E1EA2
:106C070050265A1F50275A2050285A312A190E3118
:106C17006410EF36F012EF36F0D2EF35F02550263C
:106C27001027102810D8B41BEF36F01DEF36F035BB
:106C3700EF36F02C8035EF36F0D89019361A361B20
:106C4700361C362FAE2AEF36F02CEF36F02DEF3606
:106C5700F01980D8902C362D362E362F362A06D8A6
:106C6700A02B061BAE3AEF36F03CEF36F020EF369E
:106C7700F0000E316E2FAE43EF36F045EF36F06978
:106C8700EF36F0FF0E2C14216EFF0E2D14226EFF2F
:106C97000E2E14236E7F0E2F14246E2150221023E4
:106CA700102410D8B45AEF36F05CEF36F060EF36A8
:106CB700F0010E316E69EF36F019A065EF36F06717
:106CC700EF36F069EF36F05CEF36F03150D8B46F3D
:106CD700EF36F071EF36F095EF36F0010E1926001A
:106CE7000E1A221B221C221CA07CEF36F07EEF36E8
:106CF700F095EF36F019C021F01AC022F01BC0231F
:106D0700F01CC024F02434243223322232213221D1
:106D1700C019F022C01AF023C01BF024C01CF02AAF
:106D27004A2B2A2BBEA0EF36F02B5008E12A28D891
:106D3700A0A0EF36F0A2EF36F0ADEF36F0000E2B45
:106D47006E2A68000E196E000E1A6E000E1B6E007A
:106D57000E1C6E2BBEBAEF36F02B5006E12A04D874
:106D6700B0B8EF36F0BAEF36F0C8EF36F0000E2BBA
:106D77006E000E2A6E000E196E000E1A6E000E1BA4
:106D87006E000E1C6E000E296E2AC030F030A0CFA8
:106D9700EF36F0D1EF36F0D4EF36F01B8ED5EF3665
:106DA700F01B9ED89030301C6E8BEF35F0120035FB
:106DB70050800B3E6E35503524446E34AEE6EF36C8
:106DC700F0E8EF36F0E9EF36F044804450D8B4EFFE
:106DD700EF36F0F1EF36F004EF37F04428D8A4F798
:106DE700EF36F0F9EF36F001EF37F0000E326E00B4
:106DF7000E336E000E346E000E356E348E0CEF3788
:106E0700F0000E326E000E336E000E346E000E353B
:106E17006E3950800B3E1A39503924436E38AE17FD
:106E2700EF37F019EF37F01AEF37F043804350D8B8
:106E3700B420EF37F022EF37F035EF37F04328D89B
:106E4700A428EF37F02AEF37F032EF37F0000E368D
:106E57006E000E376E000E386E000E396E388E3D9E
:106E6700EF37F0000E366E000E376E000E386E00EC
:106E77000E396E4350D8B443EF37F045EF37F04D36
:106E8700EF37F04450D8A44BEF37F04DEF37F057BA
:106E9700EF37F0000E326E000E336E000E346E00C8
:106EA7000E356EEFEF38F038503202F3CF49F0F479
:106EB700CF4AF049503F6E406A416A426A4A50459C
:106EC7006E466A476A486A37503302F3CF49F0F48F
:106ED700CF4AF049503F26000E4022412242224A23
:106EE700504526000E46224722482236503402F3E8
:106EF700CF49F0F4CF4AF049503F26000E402241D7
:106F07002242224A504526000E4622472248224165
:106F1700C042F040C041F03FC040F03F6A365033B6
:106F270002F3CF49F0F4CF4AF049503F264A504088
:106F370022000E4122000E422237503202F3CF497F
:106F4700F0F4CF4AF049503F264A504022000E4104
:106F570022000E422241C042F040C041F03FC040F3
:106F6700F03F6A36503202F3CF49F0F4CF4AF04986
:106F7700503F264A504022000E4122000E4222383E
:106F8700503302F3CF49F0F4CF4AF0495045264A2F
:106F9700504622000E4722000E482237503402F393
:106FA700CF49F0F4CF4AF0495045264A50462200CF
:106FB7000E4722000E482238503402F3CF49F0F42E
:106FC700CF4AF049503A6E4A503B6E3C6A3D6A3CA4
:106FD700C03DF03BC03CF03AC03BF03A6A3A5045FE
:106FE700263B5046223C5047223D5048223FC03A5C
:106FF700F040C03BF041C03CF042C03DF0190E0AE2
:10700700EF38F0D8903D323C323B323A32E82E0529
:10701700EF38F03A5045263B5046223C5047223D38
:1070270050482241C042F040C041F03FC040F03FCD
:107037006A435044C03AF03B6A3A26000E3B22822C
:107047000E3A24496EFF0E3B204A6E40EF38F0D8C7
:1070570090453646364736483642AE35EF38F03734
:10706700EF38F038EF38F04580D8903F364036415A
:107077003642364906D8A04A0647AE45EF38F047AC
:10708700EF38F02BEF38F0000E436E42AE4EEF387C
:10709700F050EF38F074EF38F0FF0E3F143A6EFF00
:1070A7000E40143B6EFF0E41143C6E7F0E42143DA2
:1070B7006E3A503B103C103D10D8B465EF38F0677E
:1070C700EF38F06BEF38F0010E436E74EF38F04590
:1070D700A070EF38F072EF38F074EF38F067EF38E0
:1070E700F04350D8B47AEF38F07CEF38F0A0EF389F
:1070F700F0010E4526000E46224722482248A08767
:10710700EF38F089EF38F0A0EF38F045C03AF04695
:10711700C03BF047C03CF048C03DF03D343D323CF9
:10712700323B323A323AC045F03BC046F03CC047AA
:10713700F03DC048F0494A4A2A4ABEABEF38F04A08
:107147005008E14928D8A0ABEF38F0ADEF38F0B7D9
:10715700EF38F0000E456E000E466E800E476E7FCC
:107167000E486EE5EF38F04ABEC4EF38F04A5006D5
:10717700E14904D8B0C2EF38F0C4EF38F0D0EF38A7
:10718700F0000E456E000E466E000E476E000E486C
:107197006E000E3E6EE5EF38F049C044F0FF0E4535
:1071A70016FF0E46167F0E4716000E481644A0DF40
:1071B700EF38F0E1EF38F0E2EF38F0478ED890443F
:1071C70030486E3E50481245C032F046C033F04753
:1071D700C034F048C035F012004E50800B576E4E49
:1071E700504E24596E4DAEFBEF38F0FDEF38F0FEF0
:1071F700EF38F059805950D8B404EF39F006EF3919
:10720700F01BEF39F05928D8A40CEF39F00EEF39FD
:10721700F016EF39F0000E4B6E000E4C6E000E4D5F
:107227006E000E4E6E4D8E000E4E6E23EF39F0003F
:107237000E4B6E000E4C6E000E4D6E000E4E6E52D3
:1072470050800B586E57505818D8B42DEF39F02F7F
:10725700EF39F030EF39F0578C52505224586E51B5
:10726700AE38EF39F03AEF39F03BEF39F058805844
:1072770050D8B441EF39F043EF39F058EF39F058AF
:1072870028D8A449EF39F04BEF39F053EF39F00024
:107297000E4F6E000E506E000E516E000E526E5164
:1072A7008E000E526E60EF39F0000E4F6E000E50DA
:1072B7006E000E516E000E526E5950585CD8B06772
:1072C700EF39F069EF39F090EF39F057AC6EEF39DD
:1072D700F070EF39F072EF39F0800E571A59C05A33
:1072E700F058C059F05AC058F04BC05AF04FC04B35
:1072F700F05AC04FF04CC05AF050C04CF05AC05032
:10730700F04DC05AF051C04DF05AC051F04EC05A1E
:10731700F052C04EF05AC052F0000E5A6E595058F3
:10732700C053F0546A535E000E545A54BEA5EF3949
:10733700F0545009E11A0E535CD8A0A5EF39F0A715
:10734700EF39F0DEEF39F04B504C104D104E10D89E
:10735700A4B0EF39F0B3EF39F0010EB4EF39F00014
:107367000E5A6E000E4B6E000E4C6E000E4D6E00E8
:107377000E4E6E58C059F0E7EF39F05AA0C6EF39F4
:10738700F0C8EF39F0CEEF39F0D8905A3001095AEA
:107397006ED0EF39F0D8905A324BA0D5EF39F0D7ED
:1073A700EF39F0D8EF39F05A8E4E344E324D324C19
:1073B700324B32592A5850595CD8A0E5EF39F0E7DB
:1073C700EF39F0C1EF39F057BCECEF39F0EEEF3998
:1073D700F02EEF3AF05950D8A4F4EF39F0F6EF3920
:1073E700F000EF3AF0000E4B6E000E4C6E000E4DA3
:1073F7006E000E4E6E4FEF3BF04F504B2650504CE9
:107407002251504D2252504E224EA00DEF3AF00F0E
:10741700EF3AF0BBEF3AF05AA014EF3AF016EF3A12
:10742700F01CEF3AF0D8905A3001095A6E1EEF3A25
:10743700F0D8905A324BA023EF3AF025EF3AF026D6
:10744700EF3AF05A8E4E344E324D324C324B32595F
:107457002ABBEF3AF04F504B5C50504C5851504DAF
:10746700584E50800A536E5250800A5358D8B03F36
:10747700EF3AF041EF3AF06CEF3AF04B504F5C5374
:107487006E4C505058546E4D505158556E4E505288
:1074970058566EFF0E53244B6EFF0E54204C6EFF52
:1074A7000E55204D6EFF0E56204E6E800E571A5AFF
:1074B7006C5A50D8A462EF3AF064EF3AF074EF3A9E
:1074C700F0010E4B26000E4C224D224E2274EF3A4D
:1074D700F04F504B5E50504C5A51504D5A52504EEF
:1074E7005A4B504C104D104E10D8A47DEF3AF07FF8
:1074F700EF3AF0B4EF3AF05A50D8A485EF3AF08754
:10750700EF3AF0B4EF3AF0000E4B6E000E4C6E00FF
:107517000E4D6E000E4E6E4FEF3BF0D8904B364C33
:10752700364D364E365AAE9BEF3AF09DEF3AF09E07
:10753700EF3AF04B805AA0A3EF3AF0A5EF3AF0A943
:10754700EF3AF0D8805A36ABEF3AF0D8905A36591E
:1075570050D8B4B1EF3AF0B3EF3AF0B4EF3AF0598C
:10756700064DAEB9EF3AF0BBEF3AF091EF3AF000C3
:107577000E586E5AAEC2EF3AF0C4EF3AF0DCEF3A6B
:10758700F05AC053F07F0E5316D8B4CDEF3AF0CF70
:10759700EF3AF0D3EF3AF0010E586EDCEF3AF04BCA
:1075A700A0D8EF3AF0DAEF3AF0DCEF3AF0CFEF3A63
:1075B700F05850D8B4E2EF3AF0E4EF3AF00FEF3B6F
:1075C700F0010E4B26000E4C224D224E224EA0EF0C
:1075D700EF3AF0F1EF3AF00FEF3BF04BC053F04CBE
:1075E700C054F04DC055F04EC056F0563456325583
:1075F700325432533253C04BF054C04CF055C04D47
:10760700F056C04EF05928D8B40CEF3BF00EEF3BC4
:10761700F00FEF3BF0592A5928D8B415EF3BF01774
:10762700EF3BF01FEF3BF05950D8A41DEF3BF01F85
:10763700EF3BF031EF3BF0000E4B6E000E4C6E004F
:107647000E4D6E000E4E6E5950D8A42DEF3BF02F05
:10765700EF3BF031EF3BF0000E576E59A036EF3B92
:10766700F038EF3BF03BEF3BF04D8E3CEF3BF04DFE
:107677009ED89059304E6E57AE44EF3BF046EF3BE5
:10768700F047EF3BF04E8E4BC04BF04CC04CF04DEB
:10769700C04DF04EC04EF01200040E0001E66F2CF4
:1076A7000EE56FAB0EE82EFED7E52FFCD7E62FFAD7
:1076B700D700D031EC26F091EC25F06FEC27F05095
:1076C700EC25F0D7EC25F04B0E026E000E016E6B29
:1076D700EC26F066EC25F056EC25F0530EE82EFE6E
:1076E700D700F056EC25F0530EE82EFED700F096A3
:1076F7000E0C6E7F0E0D6E8DEC26F0A30E0001E5CD
:107707006F550EE82EFED7E52FFCD7940E026E7F3D
:107717000E036E56EC28F0920E026E7D0E036E5627
:10772700EC28F0000E056E010E9CEC25F0800E058E
:107737006E010E9CEC25F0810E056E010E9CEC256A
:10774700F0210E0001E56F760EE82EFED7E52FFC3F
:10775700D700F0DAEC2FF0A20E026E7E0E036E5603
:10776700EC28F036EC2BF020EEE7F011EE23F008D2
:107777000EDBCFE3FFE806FCE23AEC27F003500408
:1077870010D8A4C9EF3BF0CCEF3BF0010ECDEF3B97
:10779700F0000E0101226F16EC32F066C02EF16781
:1077A700C02FF1000E0101206F000E1F6F3DEC2E60
:1077B700F066C02CF167C02DF101012251D8B4E762
:1077C700EF3BF0E9EF3BF009EF3CF094EC30F0F4DD
:1077D700EC29F0BFEC33F02EC16CF02FC16DF0989F
:1077E700EC28F066C06EF067C06FF02CC170F02D0A
:1077F700C171F000EC26F02E0E016E010E026E2C08
:107807000E036E010E046EE0EC27F0000E0B6E0106
:107817000E0C6E54EC31F016EC32F066C02EF167A8
:10782700C02FF101012251D8A41CEF3CF01EEF3C00
:10783700F022EF3CF094EC30F0F4EC29F02EC16C20
:10784700F02FC16DF098EC28F066C06EF067C06F3E
:10785700F02CC170F02DC171F000EC26F02E0E0156
:107867006E010E026E2C0E036E010E046EE0EC2705
:10787700F02A0E01010419D8A444EF3CF046EF3C6E
:10788700F080EF3CF0940E026E7F0E036E56EC28EC
:10789700F0F70E026E7E0E036E1AEC28F0130EB789
:1078A700EC25F001011E6F000E216F71EF3CF00017
:1078B7000E2125D96EDA6A010EDA22DF500001E5C2
:1078C7006FE551026E036AC0EC2AF0940E026E7FD8
:1078D7000E036E1AEC28F00101212B1E51215DD8F1
:1078E700A078EF3CF07AEF3CF05BEF3CF0940E02AF
:1078F7006E7F0E036E56EC28F0000E0101276F0015
:107907000E286F2251D8A48BEF3CF08DEF3CF0A1ED
:10791700EF3CF0040E0319D8A494EF3CF096EF3C2B
:10792700F0A1EF3CF0020E0419D8A49DEF3CF09FA4
:10793700EF3CF0A1EF3CF0040E046F0205D8A4A7BA
:10794700EF3CF0A9EF3CF009EF3CF062EF3EF07E30
:107957000E026E7E0E036E1AEC28F003C102F003CE
:107967006AC0EC2AF0940E026E7F0E036E56EC2866
:10797700F0E20E0C6E7F0E0D6E8DEC26F003C10C3F
:10798700F00D6A2FEC2DF0040E01010319D8B4CFC6
:10799700EF3CF0D1EF3CF0D3EF3CF009EF3CF09433
:1079A7000E026E7F0E036E56EC28F0360E026E7FC7
:1079B7000E036E56EC28F0AD0E0101236F4E0E2418
:1079C7006F010E256F040E266F010E276F050E2817
:1079D7006FB70E0C6E7F0E0D6E8DEC26F0230E0B1F
:1079E7006E010E0C6E060E0D6EB5EC2DF009EF3C18
:1079F700F0470E026E7E0E036E56EC28F0D80E0C82
:107A07006E7F0E0D6E8DEC26F003C10CF00D6A2F04
:107A1700EC2DF0040E01010319D8B415EF3DF01752
:107A2700EF3DF019EF3DF009EF3CF0940E026E7F49
:107A37000E036E56EC28F0070E026E7F0E036E568D
:107A4700EC28F0030E0101276F230E0B6E010E0CBD
:107A57006E050E0D6EB5EC2DF0940E026E7F0E03C3
:107A67006E56EC28F0170E026E7F0E036E56EC284A
:107A7700F0C20E0C6E7F0E0D6E8DEC26F0210E00FF
:107A870001E56F760EE82EFED7E52FFCD700F0163E
:107A9700EC32F066C02EF167C02FF1C5EC2EF06610
:107AA700C01FF167C020F13DEC2EF066C02CF167D6
:107AB700C02DF12EC101F02FC102F0000E046E643B
:107AC7000E036EA6EC27F001504DEC26F0010127BE
:107AD7006F2EC166F02FC167F0000E0001696F6459
:107AE7000E686F07EC27F0000166514DEC26F00198
:107AF70001286F1FC101F020C102F0000E046E645F
:107B07000E036EA6EC27F001504DEC26F00101297B
:107B17006F2CC101F02DC102F0000E046E640E033C
:107B27006EA6EC27F001504DEC26F001012A6F32CA
:107B3700EC29F04DEC26F001012B6FAC0E0C6E7F9B
:107B47000E0D6E8DEC26F0230E0B6E010E0C6E09DA
:107B57000E0D6EB5EC2DF009EF3CF0070E026E7FAF
:107B67000E036E56EC28F009EF3CF0900E026E7E85
:107B77000E036E56EC28F0040E01010319D8B4C7A2
:107B8700EF3DF0C9EF3DF0CBEF3DF009EF3CF004DE
:107B97000E276FCD0E0C6E7F0E0D6E8DEC26F0232B
:107BA7000E0B6E010E0C6E050E0D6EB5EC2DF00969
:107BB700EF3CF0D60E026E7E0E036E56EC28F08B6D
:107BC7000E0C6E7F0E0D6E8DEC26F009EF3CF03338
:107BD7000E026E7E0E036E56EC28F0040E010103B2
:107BE70019D8B4F9EF3DF0FBEF3DF0FDEF3DF0099B
:107BF700EF3CF02EC101F02FC102F0000E046E64BD
:107C07000E036EA6EC27F001504DEC26F00101277C
:107C17006F2EC166F02FC167F0000E0001696F6417
:107C27000E686F07EC27F0000166514DEC26F00156
:107C370001286F1FC101F020C102F0000E046E641D
:107C47000E036EA6EC27F001504DEC26F00101293A
:107C57006F2CC101F02DC102F0000E046E640E03FB
:107C67006EA6EC27F001504DEC26F001012A6F3289
:107C7700EC29F04DEC26F001012B6FAC0E0C6E7F5A
:107C87000E0D6E8DEC26F0A7EF3DF0F40E026E7F21
:107C97000E036E56EC28F0A10E0C6E7F0E0D6E8D46
:107CA700EC26F0000E0101046F09EF3CF0780E029C
:107CB7006E7E0E036E56EC28F009EF3CF00451007F
:107CC70001E56FE66BE651000AD8B46DEF3EF05A56
:107CD700EF3EF0E551010AD8B4ABEF3CF0030AD808
:107CE700B4FCEF3CF0010AD8B4B1EF3DF0070AD875
:107CF700B4B9EF3DF0010AD8B4DDEF3DF0030AD87F
:107D0700B4EBEF3DF0440AD8B449EF3EF05AEF3EEA
:107D1700F000EF00F0006D6F6465203D204C6F525E
:107D27006120776974682046534B207265676973D1
:107D3700746572732061636365737300506F757246
:107D470063656E746167652064652062617474653C
:107D5700726965203A20004368616E6E656C204148
:107D67006374697669747920446574656374696FAF
:107D77006E0077616974696E6720666F722076613D
:107D87006C69642068656164657200736574206D51
:107D97006F646520746F204C6F5261207374616E3D
:107DA700646279002D2D2D2D2D2D2D2D2D2D2D2D71
:107DB7002D2D2D2D2D2D2D2D2D2D2D00636F6E7419
:107DC700696E756F75732072656365697665206D79
:107DD7006F6465006672657175656E637920737986
:107DE7006E746865736973205258006672657175A1
:107DF700656E63792073796E74686573697320544F
:107E0700580076616C6964206865616465722072E8
:107E1700656365697665640073696E676C65207272
:107E2700656365697665206D6F6465004572726587
:107E37007572206465207472616E73666572740072
:107E47005265717565746520646520646F6E6E6533
:107E57006573004D65737361676520656E766F792D
:107E670065203A20007061796C6F6164204352434A
:107E7700206572726F7200446973636F7665722052
:107E870067726F7570203A20004D657375726520B3
:107E9700696D706F737369626C6500696E69746987
:107EA700616C697A65206D6F64756C65003031327D
:107EB7003334353637383941424344454600524515
:107EC700475F4F505F4D4F4445203D20307800417C
:107ED700636375736520726563657074696F6E009F
:107EE700726563656976656420646174613A200030
:107EF7004D6573736167652072656375203A20006D
:107F07004D657375726520706F737369626C650078
:107F17004D657375726520656E20636F75727300AA
:107F270054656D7065726174757265203A200045FD
:107F37006E72656769737472656D656E74007374CC
:107F4700616E646279206D6F64650048756D696460
:107F5700697465203A20006D6F6465203D204C6F81
:107F67005261004C6F5261206D6F646520006D6F28
:107F77006465203D2046534B00736C656570206D2A
:107F87006F64650041434B2E2E2E20202020004990
:107F97006E69742E2E2E2020200054696D656F7532
:107FA7007420202000456E766F692E2E2E2020002B
:107FB70052656769737465722020004D6573757229
:107FC700652E2E2E2000496D706F737369626C6584
:107FD70000526571756574653A2000446973636F73
:107FE7007665723A005458206D6F64650054696D68
:087FF700656F757400250000A0
:020000040020DA
:10000000FF0FFF0FFF0FFF0FFF0FFF0FFF0FFF0F80
:020000040030CA
:0C000000ECFFFFFF9FFFFFFFFFFFFFFF73
:00000001FF
