:020000040000FA
:0400000076EF3AF06D
:1073E100AD4E0000000000000089848496899684D7
:1073F1009889981200016E9EA201EF3AF003EF3ACC
:10740100F0FCEF39F001C09AFF12008498849604D1
:107411000E016E3E0EE82EFED7012EFCD784881297
:107421000084988496040E016E3E0EE82EFED7016C
:107431002EFCD7848612001F0E0F01576F030E5FBB
:107441006F140E5C6F608E888611871200066E8540
:107451009406508009066E065034EC3AF00550341B
:10746100EC3AF085841200016E92500E01CD91012B
:10747100C092FFCDA13FEF3AF041EF3AF03AEF3A37
:10748100F01200046E859404507F0B046E04503496
:10749100EC3AF0000E51EC3AF0036E858403501281
:1074A10000016E92500E01CD9101C092FFCDA15C01
:1074B100EF3AF05EEF3AF057EF3AF092CF02F00276
:1074C10050120084848994110E016E3A0EE82EFE4A
:1074D100D7012EFCD700D08984110E016E3A0EE837
:1074E1002EFED7012EFCD700D01200E10EF66E73EE
:1074F1000EF76E000EF86E00EE43F010EE09F00983
:1075010000F5CFEEFFE550E150FAE1000EF86E0014
:107511000118EF3EF08A960F0121978A8821998AF6
:107521009A8A9485848A9085808A9285820D0E0E2E
:1075310001FA6F0E0EFC6F130EB76F140EB86F4089
:107541000E956E200E966E000E986E12008A8C8A31
:107551008E0F01219F88908390000E9E6E000E9DDC
:107561006E090E0E01FD6F9E989E9C9D9C9D889DAF
:1075710096C58BC5999E849F86000E9C6E0C0E9BB2
:107581006E000E9C6E9E8A9D8ECD9BC58BF28C12D9
:1075910000000E066EDCEF3AF006500224046E0085
:1075A1000E0320056E04C0F6FF05C0F7FF0800F5C5
:1075B10050FBEC39F0062A06500224046E000E033B
:1075C10020056E04C0F6FF05C0F7FF0800F5500066
:1075D10009D8A4EEEF3AF0F0EF3AF0CDEF3AF00D22
:1075E1000EFBEC39F00A0EFBEC39F01200000E062E
:1075F1006E14EF3BF006500224046E000E032005CA
:107601006E04C0F6FF05C0F7FFF86A070EF76403C2
:10761100D00800F55005D0F6CFE9FFF7CFEAFFEF2C
:1076210050FBEC39F0062A06500224046E000E03CA
:1076310020056E04C0F6FF05C0F7FFF86A070EF7D4
:107641006403D00800F55005D0F6CFE9FFF7CFEA83
:10765100FFEF500009D8A430EF3BF032EF3BF0FBD5
:10766100EF3AF01200930E096E7F0E0A6E100E03B0
:107671005CD8A03EEF3BF040EF3BF04FEF3BF00317
:10768100380F0B0924046E000E0A20056E04C0F6A3
:10769100FF05C0F7FF0800F550FBEC39F00304D8F3
:1076A100A055EF3BF057EF3BF072EF3BF002C00407
:1076B100F003C005F005C004F0056A0F0E041600C2
:1076C1000E051609C006F00AC007F004500626058B
:1076D10050072206C0F6FF07C0F7FF0800F550FB70
:1076E100EC39F002C004F003C005F0040E066ED8B8
:1076F1009005320432062E78EF3BF00F0E0416008F
:107701000E051609C007F00AC008F0045007260547
:1077110050082207C0F6FF08C0F7FF0800F550FB2C
:10772100EC39F00F0E0214046E000E0314056E09FD
:10773100C006F00AC007F0045006260550072206CD
:10774100C0F6FF07C0F7FF0800F550FBEC39F01257
:1077510000000E056E000E27EC3AF0D80E056E06FD
:107761000E27EC3AF0990E056E070E27EC3AF099C8
:107771000E056E080E27EC3AF08C0E056E090E27E9
:10778100EC3AF0190E056E0A0E27EC3AF02B0E05B5
:107791006E0B0E27EC3AF0230E056E0C0E27EC3A19
:1077A100F0000E056E0D0E27EC3AF0800E056E0E00
:1077B1000E27EC3AF0000E056E0F0E27EC3AF000A2
:1077C1000E056E110E27EC3AF0FF0E056E120E2714
:1077D100EC3AF08A0E056E1D0E27EC3AF0C60E0546
:1077E1006E1E0E27EC3AF0FF0E056E1F0E27EC3AC7
:1077F100F0000E056E200E27EC3AF0080E056E2102
:107801000E27EC3AF0800E056E230E27EC3AF000BD
:107811000E056E240E27EC3AF0C30E056E310E27CD
:10782100EC3AF0270E056E330E27EC3AF00A0E05FE
:107831006E370E27EC3AF0120E056E390E27EC3A30
:10784100F0120011EC3AF00E0E42EC3AF0056E0D1A
:107851000E27EC3AF00DC005F0220E27EC3AF000AD
:107861000E106E0D50D8A438EF3CF03AEF3CF03CCE
:10787100EF3CF051EF3CF010500B24D96E000E0C90
:1078810020DA6EDF50056E000E27EC3AF0102A0D5B
:1078910050105CD8A04FEF3CF051EF3CF03CEF3C76
:1078A100F0830E056E010E27EC3AF0210E0E6E7676
:1078B1000EE82EFED70E2EFCD700D0120E42EC3A67
:1078C100F00F6E68EF3CF0120E42EC3AF00F6E0FC3
:1078D100A66DEF3CF06FEF3CF064EF3CF0FF0E055E
:1078E1006E120E27EC3AF06F0E026E7F0E036EF7EA
:1078F100EC3AF0000E106E0D50D8A482EF3CF084EB
:10790100EF3CF086EF3CF0A3EF3CF010500B24D994
:107911006E000E0C20DA6EDF500E6E0E50026E03FA
:107921006A33EC3BF0860E026E7E0E036EF7EC3A84
:10793100F0102A0D50105CD8A0A1EF3CF0A3EF3C51
:10794100F086EF3CF0860E026E7E0E036EC9EC3AB5
:10795100F01200010E42EC3AF00E6EA40E026E7FA0
:107961000E036EF7EC3AF00EC002F0036A33EC3B03
:10797100F0860E026E7E0E036EC9EC3AF00E508058
:107981000B0D6E0D50D8B4C8EF3CF0CAEF3CF0E5DA
:10799100EF3CF00E50400B0D6E0D50D8A4D3EF3CD0
:1079A100F0D5EF3CF0DDEF3CF0D20E026E7F0E031E
:1079B1006EC9EC3AF0EBEF3CF0470E026E7E0E031F
:1079C1006EC9EC3AF0EBEF3CF0DE0E026E7F0E0377
:1079D1006EC9EC3AF00E50070B0D6E30EF3DF0E939
:1079E1000E026E7F0E036EC9EC3AF05DEF3DF0C5FD
:1079F1000E026E7F0E036EC9EC3AF05DEF3DF01C96
:107A01000E026E7F0E036EC9EC3AF05DEF3DF0F4AD
:107A11000E026E7F0E036EC9EC3AF05DEF3DF0058C
:107A21000E026E7F0E036EC9EC3AF05DEF3DF0ED94
:107A31000E026E7E0E036EC9EC3AF05DEF3DF04929
:107A41000E026E7F0E036EC9EC3AF05DEF3DF088D9
:107A51000E026E7E0E036EC9EC3AF05DEF3DF00D45
:107A6100500B6E0C6A0C50000AD8B43AEF3DF05D31
:107A7100EF3DF00B50000AD8B4F0EF3CF0010AD80A
:107A8100B4F8EF3CF0030AD8B400EF3DF0010AD896
:107A9100B408EF3DF0070AD8B410EF3DF0010AD861
:107AA100B418EF3DF0030AD8B420EF3DF0010AD835
:107AB100B428EF3DF05DEF3DF0120006EC3AF00F17
:107AC1000E42EC3AF0056E0D0E27EC3AF0850E05EC
:107AD1006E010E27EC3AF0210E0D6E760EE82EFEA9
:107AE100D70D2EFCD700D0D50E026E7E0E036EC9C7
:107AF100EC3AF0BC0E026E7E0E036EC9EC3AF01247
:107B01000E42EC3AF0106E10B889EF3DF08BEF3D6C
:107B1100F092EF3DF010AE90EF3DF092EF3DF0802E
:107B2100EF3DF0120E42EC3AF00D6E0DB89BEF3DB9
:107B3100F09DEF3DF0A4EF3DF0FF0E056E120E2714
:107B4100EC3AF017EF3EF0330E026E7F0E036EC972
:107B5100EC3AF0120E42EC3AF0106EB4EF3DF01236
:107B61000E42EC3AF0106E10ACB9EF3DF0BBEF3DB8
:107B7100F0B0EF3DF010AAC0EF3DF0C2EF3DF0D004
:107B8100EF3DF0860E026E7E0E036EC9EC3AF08177
:107B91000E026E7F0E036EC9EC3AF012EF3EF0B5A5
:107BA1000E026E7F0E036EF7EC3AF0130E42EC3AC2
:107BB100F00E6E100E42EC3AF0056E0D0E27EC3A07
:107BC100F0000E0F6E03EF3EF00F500B24D96E0044
:107BD1000E0C20DA6E000E42EC3AF0DF6E0F500B05
:107BE10024D96E000E0C20DA6EDF500D6E0D50029E
:107BF1006E036A33EC3BF0860E026E7E0E036EF767
:107C0100EC3AF00F2A0E500F5CD8A00AEF3EF00CB0
:107C1100EF3EF0E5EF3DF0860E026E7E0E036EC97B
:107C2100EC3AF0FF0E056E120E27EC3AF01200044A
:107C31000E176E2C0E166EAC0EE82EFED7162EFC0D
:107C4100D7172EFAD78BEC3AF01CEC3AF0F5EC3959
:107C5100F062EC3AF04B0E026E000E016EA7EC3AA8
:107C6100F0530EE82EFED700F0530EE82EFED7009B
:107C7100F0A30E166E550EE82EFED7162EFCD70079
:107C8100F0860E026E7E0E036EC9EC3AF0A30E0270
:107C91006E7E0E036EC9EC3AF0000E056E010E27E2
:107CA100EC3AF0800E056E010E27EC3AF0810E05DC
:107CB1006E010E27EC3AF0210E166E760EE82EFEBE
:107CC100D7162EFCD700D0AAEC3CF05D0E026E7FD9
:107CD1000E036EC9EC3AF0A9EC3BF020EE43F01034
:107CE100EE37F0080EDBCFE3FFE806FCE2420E427E
:107CF100EC3AF0220AD8B480EF3EF082EF3EF088F1
:107D0100EF3EF05D0E026E7F0E036EC9EC3AF01984
:107D11000E0B6E000E0C6E5EEC3DF0130E42EC3A53
:107D2100F0406E4E0E376EAD0E386E010E396E029A
:107D31000E3A6E010E3B6E010E3C6E370E0B6E005D
:107D41000E0C6E060E0D6E22EC3CF04E0E1918D87C
:107D5100A4ADEF3EF0AFEF3EF0B5EF3EF05D0E02A9
:107D61006E7F0E036EC9EC3AF0020E1B18D8A4BC4C
:107D7100EF3EF0BEEF3EF0F8EF3EF0020E1D18D8D8
:107D8100A4C5EF3EF0C7EF3EF0F8EF3EF0000E4124
:107D91006EDAEF3EF0190E4124D96EDA6A000EDA7E
:107DA10022370E4124E16EE26A000EE222DFCFE7C4
:107DB100FF412A4150166E176A1150165C17508008
:107DC1000A186E1250800A1858D8A0EAEF3EF0EC5B
:107DD100EF3EF0CBEF3EF01CC039F0370E0B6E00DA
:107DE1000E0C6E40C00DF022EC3CF088EF3EF0002E
:107DF1000E426E0BEF3FF0190E4224D96EDA6A0083
:107E01000EDA22370E4224E16EE26A000EE222DF30
:107E1100CFE7FF422A4250166E176A1150165C17BF
:107E210050800A186E1250800A1858D8A01BEF3FD4
:107E3100F01DEF3FF0FCEF3EF0040E3B6EEEEF3E27
:107E4100F000EF00F0006D6F6465203D204C6F5233
:107E51006120776974682046534B207265676973A6
:107E6100746572732061636365737300506F75721B
:107E710063656E7461676520646520626174746511
:107E8100726965203A20004368616E6E656C20411D
:107E91006374697669747920446574656374696F84
:107EA1006E00736574206D6F646520746F204C6F74
:107EB1005261207374616E646279007761697469DB
:107EC1006E6720666F722076616C696420686561F7
:107ED100646572002D2D2D2D2D2D2D2D2D2D2D2D4A
:107EE1002D2D2D2D2D2D2D2D2D2D2D00636F6E74EE
:107EF100696E756F75732072656365697665206D4E
:107F01006F6465006672657175656E63792073795A
:107F11006E74686573697320525800667265717575
:107F2100656E63792073796E746865736973205423
:107F3100580076616C6964206865616465722072BD
:107F4100656365697665640073696E676C65207247
:107F5100656365697665206D6F646500696E697436
:107F610069616C697A65206D6F64756C65004D653A
:107F7100737361676520656E766F7965203A2000BD
:107F81007061796C6F616420435243206572726F36
:107F91007200303132333435363738394142434457
:107FA1004546005245475F4F505F4D4F4445203D88
:107FB1002030780072656365697665642064617458
:107FC100613A20007374616E646279206D6F64653B
:107FD100006D6F6465203D204C6F5261006D6F64D0
:107FE10065203D2046534B00736C656570206D6FB5
:0E7FF1006465005458206D6F64650025000023
:020000040020DA
:10000000FF0FFF0FFF0FFF0FFF0FFF0FFF0FFF0F80
:020000040030CA
:0C000000ECFFFFDF9FFFFFFFFFFFFFFF93
:00000001FF
