:020000040000FA
:04000000B3EF3AF030
:10745B00AD4E00000000000000898484968996845C
:10746B009889981200016E9EA23EEF3AF040EF3AD7
:10747B00F039EF3AF001C09AFF1200849884960419
:10748B000E016E3E0EE82EFED7012EFCD78488121D
:10749B000084988496040E016E3E0EE82EFED701F2
:1074AB002EFCD7848612001F0E0F01576F030E5F41
:1074BB006F140E5C6F608E888611871200066E85C6
:1074CB009406508009066E065071EC3AF005507127
:1074DB00EC3AF085841200016E92500E01CD9101B1
:1074EB00C092FFCDA17CEF3AF07EEF3AF077EF3A06
:1074FB00F01200046E859404507F0B046E045071DF
:10750B00EC3AF0000E8EEC3AF0036E8584035012C9
:10751B0000016E92500E01CD9101C092FFCDA19949
:10752B00EF3AF09BEF3AF094EF3AF092CF02F00281
:10753B0050120084848994110E016E3A0EE82EFECF
:10754B00D7012EFCD700D08984110E016E3A0EE8BC
:10755B002EFED7012EFCD700D012005B0EF66E74F8
:10756B000EF76E000EF86E00EE43F010EE09F00908
:10757B0000F5CFEEFFE550E150FAE1000EF86E009A
:10758B000155EF3EF08A960F0121978A8821998A3F
:10759B009A8A9485848A9085808A9285820D0E0EB4
:1075AB0001FA6F0E0EFC6F130EB76F140EB86F400F
:1075BB000E956E200E966E000E986E12008A8C8AB7
:1075CB008E0F01219F88908390000E9E6E000E9D62
:1075DB006E090E0E01FD6F9E989E9C9D9C9D889D35
:1075EB0096C58BC5999E849F86000E9C6E0C0E9B38
:1075FB006E000E9C6E9E8A9D8ECD9BC58BF28C125F
:10760B0000000E066E19EF3BF006500224046E00CC
:10761B000E0320056E04C0F6FF05C0F7FF0800F54A
:10762B005038EC3AF0062A06500224046E000E0382
:10763B0020056E04C0F6FF05C0F7FF0800F55000EB
:10764B0009D8A42BEF3BF02DEF3BF00AEF3BF00DED
:10765B000E38EC3AF00A0E38EC3AF01200000E0637
:10766B006E51EF3BF006500224046E000E03200512
:10767B006E04C0F6FF05C0F7FFF86A070EF7640348
:10768B00D00800F55005D0F6CFE9FFF7CFEAFFEFB2
:10769B005038EC3AF0062A06500224046E000E0312
:1076AB0020056E04C0F6FF05C0F7FFF86A070EF75A
:1076BB006403D00800F55005D0F6CFE9FFF7CFEA09
:1076CB00FFEF500009D8A46DEF3BF06FEF3BF038A4
:1076DB00EF3BF01200930E096E7F0E0A6E100E0335
:1076EB005CD8A07BEF3BF07DEF3BF08CEF3BF003E6
:1076FB00380F0B0924046E000E0A20056E04C0F629
:10770B00FF05C0F7FF0800F55038EC3AF00304D83A
:10771B00A092EF3BF094EF3BF0AFEF3BF002C004D5
:10772B00F003C005F005C004F0056A0F0E04160047
:10773B000E051609C006F00AC007F0045006260510
:10774B0050072206C0F6FF07C0F7FF0800F55038B8
:10775B00EC3AF002C004F003C005F0040E066ED83C
:10776B009005320432062EB5EF3BF00F0E041600D7
:10777B000E051609C007F00AC008F00450072605CD
:10778B0050082207C0F6FF08C0F7FF0800F5503875
:10779B00EC3AF00F0E0214046E000E0314056E0982
:1077AB00C006F00AC007F004500626055007220653
:1077BB00C0F6FF07C0F7FF0800F55038EC3AF0129F
:1077CB0000000E056E000E64EC3AF0D90E056E0645
:1077DB000E64EC3AF0000E056E070E64EC3AF00006
:1077EB000E056E080E64EC3AF08C0E056E090E64F5
:1077FB00EC3AF0190E056E0A0E64EC3AF02B0E05FE
:10780B006E0B0E64EC3AF0230E056E0C0E64EC3A24
:10781B00F0000E056E0D0E64EC3AF0800E056E0E48
:10782B000E64EC3AF0000E056E0F0E64EC3AF000AD
:10783B000E056E110E64EC3AF0FF0E056E120E641F
:10784B00EC3AF0230E056E1D0E64EC3AF0C60E05F5
:10785B006E1E0E64EC3AF0FF0E056E1F0E64EC3AD2
:10786B00F0000E056E200E64EC3AF0080E056E214A
:10787B000E64EC3AF0800E056E230E64EC3AF000C9
:10788B000E056E240E64EC3AF0C30E056E310E64D9
:10789B00EC3AF0270E056E330E64EC3AF00A0E0547
:1078AB006E370E64EC3AF0120E056E390E64EC3A3C
:1078BB00F012004EEC3AF00E0E7FEC3AF0056E0D26
:1078CB000E64EC3AF00DC005F0220E64EC3AF000B9
:1078DB000E106E0D50D8A475EF3CF077EF3CF0799D
:1078EB00EF3CF08EEF3CF010500B24D96E000E0CD9
:1078FB0020DA6EDF50056E000E64EC3AF0102A0DA4
:10790B0050105CD8A08CEF3CF08EEF3CF079EF3C44
:10791B00F0830E056E010E64EC3AF0210E0E6E76BE
:10792B000EE82EFED70E2EFCD700D0120E7FEC3AAF
:10793B00F00F6EA5EF3CF0120E7FEC3AF00F6E0FCE
:10794B00A6AAEF3CF0ACEF3CF0A1EF3CF0FF0E052C
:10795B006E120E64EC3AF06F0E026E7F0E036E34F5
:10796B00EC3BF0000E106E0D50D8A4BFEF3CF0C1F5
:10797B00EF3CF0C3EF3CF0E0EF3CF010500B24D9A0
:10798B006E000E0C20DA6EDF500E6E0E50026E0380
:10799B006A70EC3BF0860E026E7E0E036E34EC3B8F
:1079AB00F0102A0D50105CD8A0DEEF3CF0E0EF3C5D
:1079BB00F0C3EF3CF0860E026E7E0E036E06EC3BC0
:1079CB00F01200010E7FEC3AF00E6EA40E026E7FE9
:1079DB000E036E34EC3BF00EC002F0036A70EC3B0E
:1079EB00F0860E026E7E0E036E06EC3BF00E5080A0
:1079FB000B0D6E0D50D8B405EF3DF007EF3DF022A7
:107A0B00EF3DF00E50400B0D6E0D50D8A410EF3D16
:107A1B00F012EF3DF01AEF3DF0D20E026E7F0E0327
:107A2B006E06EC3BF028EF3DF0470E026E7E0E0328
:107A3B006E06EC3BF028EF3DF0DE0E026E7F0E0380
:107A4B006E06EC3BF00E50070B0D6E6DEF3DF0E943
:107A5B000E026E7F0E036E06EC3BF09AEF3DF0C507
:107A6B000E026E7F0E036E06EC3BF09AEF3DF01CA0
:107A7B000E026E7F0E036E06EC3BF09AEF3DF0F4B8
:107A8B000E026E7F0E036E06EC3BF09AEF3DF00597
:107A9B000E026E7F0E036E06EC3BF09AEF3DF0ED9F
:107AAB000E026E7E0E036E06EC3BF09AEF3DF04934
:107ABB000E026E7F0E036E06EC3BF09AEF3DF088E4
:107ACB000E026E7E0E036E06EC3BF09AEF3DF00D50
:107ADB00500B6E0C6A0C50000AD8B477EF3DF09A3D
:107AEB00EF3DF00B50000AD8B42DEF3DF0010AD852
:107AFB00B435EF3DF0030AD8B43DEF3DF0010AD8A1
:107B0B00B445EF3DF0070AD8B44DEF3DF0010AD86C
:107B1B00B455EF3DF0030AD8B45DEF3DF0010AD840
:107B2B00B465EF3DF09AEF3DF0120043EC3AF00FE5
:107B3B000E7FEC3AF0056E0D0E64EC3AF0860E05F6
:107B4B006E010E64EC3AF0210E0D6E760EE82EFEF1
:107B5B00D70D2EFCD700D0D50E026E7E0E036E060F
:107B6B00EC3BF0BC0E026E7E0E036E06EC3BF0128D
:107B7B000E7FEC3AF0106E10B8C6EF3DF0C8EF3D3B
:107B8B00F0CFEF3DF010AECDEF3DF0CFEF3DF0BDC0
:107B9B00EF3DF0120E7FEC3AF00D6E0DB8D8EF3DC5
:107BAB00F0DAEF3DF0E1EF3DF0FF0E056E120E64E3
:107BBB00EC3AF054EF3EF0330E026E7F0E036E067E
:107BCB00EC3BF0120E7FEC3AF0106EF1EF3DF01241
:107BDB000E7FEC3AF0106E10ACF6EF3DF0F8EF3D87
:107BEB00F0EDEF3DF010AAFDEF3DF0FFEF3DF00D96
:107BFB00EF3EF0860E026E7E0E036E06EC3BF081BE
:107C0B000E026E7F0E036E06EC3BF04FEF3EF0B5AF
:107C1B000E026E7F0E036E34EC3BF0130E7FEC3ACC
:107C2B00F00E6E100E7FEC3AF0056E0D0E64EC3A12
:107C3B00F0000E0F6E40EF3EF00F500B24D96E008C
:107C4B000E0C20DA6E000E7FEC3AF0DF6E0F500B4D
:107C5B0024D96E000E0C20DA6EDF500D6E0D500223
:107C6B006E036A70EC3BF0860E026E7E0E036E3472
:107C7B00EC3BF00F2A0E500F5CD8A047EF3EF049BB
:107C8B00EF3EF022EF3EF0860E026E7E0E036E0686
:107C9B00EC3BF0FF0E056E120E64EC3AF012000492
:107CAB000E176E2C0E166EAC0EE82EFED7162EFC93
:107CBB00D7172EFAD7C8EC3AF059EC3AF032EC3A27
:107CCB00F09FEC3AF04B0E026E000E016EE4EC3AB4
:107CDB00F0530EE82EFED700F0530EE82EFED70021
:107CEB00F0A30E166E550EE82EFED7162EFCD700FF
:107CFB00F0860E026E7E0E036E06EC3BF0A30E02B8
:107D0B006E7E0E036E06EC3BF0000E056E010E64EC
:107D1B00EC3AF0800E056E010E64EC3AF0810E0524
:107D2B006E010E64EC3AF0210E166E760EE82EFE06
:107D3B00D7162EFCD700D0E7EC3CF05D0E026E7F21
:107D4B000E036E06EC3BF0E6EC3BF020EE43F0103E
:107D5B00EE37F0080EDBCFE3FFE806FCE2130E7FF5
:107D6B00EC3AF0406E190E0B6E000E0C6E9BEC3D58
:107D7B00F0020E1B18D8A4C5EF3EF0C7EF3EF0F093
:107D8B00EF3EF0000E416EDAEF3EF0190E4124D9B2
:107D9B006EDA6A000EDA22370E4124E16EE26A00D7
:107DAB000EE222DFCFE7FF412A4150166E176A1110
:107DBB0050165C1750800A186E1250800A1858D84B
:107DCB00A0EAEF3EF0ECEF3EF0CBEF3EF01CC039FB
:107DDB00F0B8EF3EF0000E426E03EF3FF0190E428B
:107DEB0024D96EDA6A000EDA22370E4224E16EE2F3
:107DFB006A000EE222DFCFE7FF422A4250166E17CF
:107E0B006A1150165C1750800A186E1250800A18AF
:107E1B0058D8A013EF3FF015EF3FF0F4EF3EF0040E
:107E2B000E3B6E370E0B6E000E0C6E40C00DF05FEE
:107E3B00EC3CF0B8EF3EF000EF00F0006D6F6465C6
:107E4B00203D204C6F526120776974682046534B5C
:107E5B002072656769737465727320616363657300
:107E6B007300506F757263656E746167652064652E
:107E7B00206261747465726965203A200043686101
:107E8B006E6E656C20416374697669747920446504
:107E9B0074656374696F6E00736574206D6F6465D0
:107EAB0020746F204C6F5261207374616E64627921
:107EBB000077616974696E6720666F722076616CFA
:107ECB00696420686561646572002D2D2D2D2D2D43
:107EDB002D2D2D2D2D2D2D2D2D2D2D2D2D2D2D2DC7
:107EEB002D00636F6E74696E756F757320726563A9
:107EFB0065697665206D6F64650066726571756581
:107F0B006E63792073796E74686573697320525848
:107F1B00006672657175656E63792073796E74682E
:107F2B00657369732054580076616C6964206865C9
:107F3B006164657220726563656976656400736957
:107F4B006E676C652072656365697665206D6F641D
:107F5B006500696E697469616C697A65206D6F641F
:107F6B00756C65004D65737361676520656E766F23
:107F7B007965203A20007061796C6F6164204352FF
:107F8B0043206572726F72003031323334353637BD
:107F9B003839414243444546005245475F4F505F95
:107FAB004D4F4445203D20307800726563656976FE
:107FBB00656420646174613A20007374616E64625D
:107FCB0079206D6F6465006D6F6465203D204C6F8B
:107FDB005261006D6F6465203D2046534B00736CFE
:107FEB00656570206D6F6465005458206D6F646516
:047FFB00002500005D
:020000040020DA
:10000000FF0FFF0FFF0FFF0FFF0FFF0FFF0FFF0F80
:020000040030CA
:0C000000ECFFFFFF9FFFFFFFFFFFFFFF73
:00000001FF
