:020000040000FA
:04000000B7EF3AF02C
:10746300AD4E000000000000008984849689968454
:107473009889981200016E9EA242EF3AF044EF3AC7
:10748300F03DEF3AF001C09AFF120084988496040D
:107493000E016E3E0EE82EFED7012EFCD784881215
:1074A3000084988496040E016E3E0EE82EFED701EA
:1074B3002EFCD7848612001F0E0F01576F030E5F39
:1074C3006F140E5C6F608E888611871200066E85BE
:1074D3009406508009066E065075EC3AF005507517
:1074E300EC3AF085841200016E92500E01CD9101A9
:1074F300C092FFCDA180EF3AF082EF3AF07BEF3AF2
:10750300F01200046E859404507F0B046E045075D2
:10751300EC3AF0000E92EC3AF0036E8584035012BD
:1075230000016E92500E01CD9101C092FFCDA19D3D
:10753300EF3AF09FEF3AF098EF3AF092CF02F00271
:1075430050120084848994110E016E3A0EE82EFEC7
:10755300D7012EFCD700D08984110E016E3A0EE8B4
:107563002EFED7012EFCD700D01200630EF66E74E8
:107573000EF76E000EF86E00EE43F010EE09F00900
:1075830000F5CFEEFFE550E150FAE1000EF86E0092
:107593000159EF3EF08A960F0121978A8821998A33
:1075A3009A8A9485848A9085808A9285820D0E0EAC
:1075B30001FA6F0E0EFC6F130EB76F140EB86F4007
:1075C3000E956E200E966E000E986E12008A8C8AAF
:1075D3008E0F01219F88908390000E9E6E000E9D5A
:1075E3006E090E0E01FD6F9E989E9C9D9C9D889D2D
:1075F30096C58BC5999E849F86000E9C6E0C0E9B30
:107603006E000E9C6E9E8A9D8ECD9BC58BF28C1256
:1076130000000E066E1DEF3BF006500224046E00C0
:107623000E0320056E04C0F6FF05C0F7FF0800F542
:10763300503CEC3AF0062A06500224046E000E0376
:1076430020056E04C0F6FF05C0F7FF0800F55000E3
:1076530009D8A42FEF3BF031EF3BF00EEF3BF00DD9
:107663000E3CEC3AF00A0E3CEC3AF01200000E0627
:107673006E55EF3BF006500224046E000E03200506
:107683006E04C0F6FF05C0F7FFF86A070EF7640340
:10769300D00800F55005D0F6CFE9FFF7CFEAFFEFAA
:1076A300503CEC3AF0062A06500224046E000E0306
:1076B30020056E04C0F6FF05C0F7FFF86A070EF752
:1076C3006403D00800F55005D0F6CFE9FFF7CFEA01
:1076D300FFEF500009D8A471EF3BF073EF3BF03C90
:1076E300EF3BF01200930E096E7F0E0A6E100E032D
:1076F3005CD8A07FEF3BF081EF3BF090EF3BF003D2
:10770300380F0B0924046E000E0A20056E04C0F620
:10771300FF05C0F7FF0800F5503CEC3AF00304D82E
:10772300A096EF3BF098EF3BF0B3EF3BF002C004C1
:10773300F003C005F005C004F0056A0F0E0416003F
:107743000E051609C006F00AC007F0045006260508
:1077530050072206C0F6FF07C0F7FF0800F5503CAC
:10776300EC3AF002C004F003C005F0040E066ED834
:107773009005320432062EB9EF3BF00F0E041600CB
:107783000E051609C007F00AC008F00450072605C5
:1077930050082207C0F6FF08C0F7FF0800F5503C69
:1077A300EC3AF00F0E0214046E000E0314056E097A
:1077B300C006F00AC007F00450062605500722064B
:1077C300C0F6FF07C0F7FF0800F5503CEC3AF01293
:1077D30000000E056E000E68EC3AF0D90E056E0639
:1077E3000E68EC3AF0000E056E070E68EC3AF000F6
:1077F3000E056E080E68EC3AF08C0E056E090E68E5
:10780300EC3AF0190E056E0A0E68EC3AF02B0E05F1
:107813006E0B0E68EC3AF0230E056E0C0E68EC3A14
:10782300F0000E056E0D0E68EC3AF0800E056E0E3C
:107833000E68EC3AF0000E056E0F0E68EC3AF0009D
:107843000E056E110E68EC3AF0FF0E056E120E680F
:10785300EC3AF0230E056E1D0E68EC3AF0C60E05E9
:107863006E1E0E68EC3AF0FF0E056E1F0E68EC3AC2
:10787300F0000E056E200E68EC3AF0080E056E213E
:107883000E68EC3AF0800E056E230E68EC3AF000B9
:107893000E056E240E68EC3AF0C30E056E310E68C9
:1078A300EC3AF0270E056E330E68EC3AF00A0E053B
:1078B3006E370E68EC3AF0120E056E390E68EC3A2C
:1078C300F0120052EC3AF00E0E83EC3AF0056E0D16
:1078D3000E68EC3AF00DC005F0220E68EC3AF000A9
:1078E3000E106E0D50D8A479EF3CF07BEF3CF07D89
:1078F300EF3CF092EF3CF010500B24D96E000E0CCD
:1079030020DA6EDF50056E000E68EC3AF0102A0D97
:1079130050105CD8A090EF3CF092EF3CF07DEF3C30
:10792300F0830E056E010E68EC3AF0210E0E6E76B2
:107933000EE82EFED70E2EFCD700D0120E83EC3AA3
:10794300F00F6EA9EF3CF0120E83EC3AF00F6E0FBE
:10795300A6AEEF3CF0B0EF3CF0A5EF3CF0FF0E0518
:107963006E120E68EC3AF06F0E026E7F0E036E38E5
:10797300EC3BF0000E106E0D50D8A4C3EF3CF0C5E5
:10798300EF3CF0C7EF3CF0E4EF3CF010500B24D990
:107993006E000E0C20DA6EDF500E6E0E50026E0378
:1079A3006A74EC3BF0860E026E7E0E036E38EC3B7F
:1079B300F0102A0D50105CD8A0E2EF3CF0E4EF3C4D
:1079C300F0C7EF3CF0860E026E7E0E036E0AEC3BB0
:1079D300F01200010E83EC3AF00E6EA40E026E7FDD
:1079E3000E036E38EC3BF00EC002F0036A74EC3BFE
:1079F300F0860E026E7E0E036E0AEC3BF00E508094
:107A03000B0D6E0D50D8B409EF3DF00BEF3DF02692
:107A1300EF3DF00E50400B0D6E0D50D8A414EF3D0A
:107A2300F016EF3DF01EEF3DF0D20E026E7F0E0317
:107A33006E0AEC3BF02CEF3DF0470E026E7E0E0318
:107A43006E0AEC3BF02CEF3DF0DE0E026E7F0E0370
:107A53006E0AEC3BF00E50070B0D6E71EF3DF0E933
:107A63000E026E7F0E036E0AEC3BF09EEF3DF0C5F7
:107A73000E026E7F0E036E0AEC3BF09EEF3DF01C90
:107A83000E026E7F0E036E0AEC3BF09EEF3DF0F4A8
:107A93000E026E7F0E036E0AEC3BF09EEF3DF00587
:107AA3000E026E7F0E036E0AEC3BF09EEF3DF0ED8F
:107AB3000E026E7E0E036E0AEC3BF09EEF3DF04924
:107AC3000E026E7F0E036E0AEC3BF09EEF3DF088D4
:107AD3000E026E7E0E036E0AEC3BF09EEF3DF00D40
:107AE300500B6E0C6A0C50000AD8B47BEF3DF09E2D
:107AF300EF3DF00B50000AD8B431EF3DF0010AD846
:107B0300B439EF3DF0030AD8B441EF3DF0010AD890
:107B1300B449EF3DF0070AD8B451EF3DF0010AD85C
:107B2300B459EF3DF0030AD8B461EF3DF0010AD830
:107B3300B469EF3DF09EEF3DF0120047EC3AF00FD1
:107B43000E83EC3AF0056E0D0E68EC3AF0860E05E6
:107B53006E010E68EC3AF0210E0D6E760EE82EFEE5
:107B6300D70D2EFCD700D0D50E026E7E0E036E0A03
:107B7300EC3BF0BC0E026E7E0E036E0AEC3BF01281
:107B83000E83EC3AF0106E10B8CAEF3DF0CCEF3D27
:107B9300F0D3EF3DF010AED1EF3DF0D3EF3DF0C1A8
:107BA300EF3DF0120E83EC3AF00D6E0DB8DCEF3DB5
:107BB300F0DEEF3DF0E5EF3DF0FF0E056E120E68CF
:107BC300EC3AF058EF3EF0330E026E7F0E036E0A6E
:107BD300EC3BF0120E83EC3AF0106EF5EF3DF01231
:107BE3000E83EC3AF0106E10ACFAEF3DF0FCEF3D73
:107BF300F0F1EF3DF010AA01EF3EF003EF3EF0117C
:107C0300EF3EF0860E026E7E0E036E0AEC3BF081B1
:107C13000E026E7F0E036E0AEC3BF053EF3EF0B59F
:107C23000E026E7F0E036E38EC3BF0130E83EC3ABC
:107C3300F00E6E100E83EC3AF0056E0D0E68EC3A02
:107C4300F0000E0F6E44EF3EF00F500B24D96E0080
:107C53000E0C20DA6E000E83EC3AF0DF6E0F500B41
:107C630024D96E000E0C20DA6EDF500D6E0D50021B
:107C73006E036A74EC3BF0860E026E7E0E036E3862
:107C8300EC3BF00F2A0E500F5CD8A04BEF3EF04DAB
:107C9300EF3EF026EF3EF0860E026E7E0E036E0A76
:107CA300EC3BF0FF0E056E120E68EC3AF012000486
:107CB3000E176E2C0E166EAC0EE82EFED7162EFC8B
:107CC300D7172EFAD7CCEC3AF05DEC3AF036EC3A13
:107CD300F0A3EC3AF04B0E026E000E016EE8EC3AA4
:107CE300F0530EE82EFED700F0530EE82EFED70019
:107CF300F0A30E166E550EE82EFED7162EFCD700F7
:107D0300F0860E026E7E0E036E0AEC3BF0A30E02AB
:107D13006E7E0E036E0AEC3BF0000E056E010E68DC
:107D2300EC3AF0800E056E010E68EC3AF0810E0518
:107D33006E010E68EC3AF0210E166E760EE82EFEFA
:107D4300D7162EFCD700D0EBEC3CF05D0E026E7F15
:107D53000E036E0AEC3BF0EAEC3BF020EE43F0102E
:107D6300EE37F0080EDBCFE3FFE806FCE2190E0B5B
:107D73006E000E0C6E9FEC3DF0020E1B18D8A4C5CE
:107D8300EF3EF0C7EF3EF0F0EF3EF0000E416EDA4B
:107D9300EF3EF0190E4124D96EDA6A000EDA22376B
:107DA3000E4124E16EE26A000EE222DFCFE7FF41DB
:107DB3002A4150166E176A1150165C1750800A1824
:107DC3006E1250800A1858D8A0EAEF3EF0ECEF3E4E
:107DD300F0CBEF3EF01CC039F0B8EF3EF0000E429E
:107DE3006E03EF3FF0190E4224D96EDA6A000EDA01
:107DF30022370E4224E16EE26A000EE222DFCFE771
:107E0300FF422A4250166E176A1150165C175080B3
:107E13000A186E1250800A1858D8A013EF3FF015B5
:107E2300EF3FF0F4EF3EF0040E3B6E370E0B6E00A7
:107E33000E0C6E40C00DF063EC3CF0B8EF3EF0006A
:107E4300EF00F0006D6F6465203D204C6F526120A0
:107E5300776974682046534B20726567697374654C
:107E630072732061636365737300506F757263652A
:107E73006E746167652064652062617474657269FC
:107E830065203A20004368616E6E656C204163741F
:107E9300697669747920446574656374696F6E00EB
:107EA300736574206D6F646520746F204C6F52612D
:107EB300207374616E6462790077616974696E67B7
:107EC30020666F722076616C696420686561646501
:107ED30072002D2D2D2D2D2D2D2D2D2D2D2D2D2DB7
:107EE3002D2D2D2D2D2D2D2D2D00636F6E74696E6F
:107EF300756F75732072656365697665206D6F6450
:107F030065006672657175656E63792073796E7449
:107F13006865736973205258006672657175656E82
:107F230063792073796E746865736973205458009C
:107F330076616C696420686561646572207265634B
:107F430065697665640073696E676C652072656345
:107F530065697665206D6F646500696E6974696132
:107F63006C697A65206D6F64756C65004D6573731C
:107F730061676520656E766F7965203A20007061D0
:107F8300796C6F616420435243206572726F720093
:107F9300303132333435363738394142434445463C
:107FA300005245475F4F505F4D4F4445203D2030C1
:107FB3007800726563656976656420646174613A0B
:107FC30020007374616E646279206D6F6465006D67
:107FD3006F6465203D204C6F5261006D6F646520B6
:107FE3003D2046534B00736C656570206D6F64656F
:0C7FF300005458206D6F646500250000EC
:020000040020DA
:10000000FF0FFF0FFF0FFF0FFF0FFF0FFF0FFF0F80
:020000040030CA
:0C000000ECFFFFFF9FFFFFFFFFFFFFFF73
:00000001FF
